{
  "abi": [
    {
      "inputs": [],
      "name": "bool_1",
      "outputs": [
        {
          "internalType": "bool",
          "name": "",
          "type": "bool"
        }
      ],
      "stateMutability": "view",
      "type": "function"
    },
    {
      "inputs": [],
      "name": "bool_2",
      "outputs": [
        {
          "internalType": "bool",
          "name": "",
          "type": "bool"
        }
      ],
      "stateMutability": "view",
      "type": "function"
    },
    {
      "inputs": [],
      "name": "bool_3",
      "outputs": [
        {
          "internalType": "bool",
          "name": "",
          "type": "bool"
        }
      ],
      "stateMutability": "view",
      "type": "function"
    },
    {
      "inputs": [],
      "name": "contractAdd",
      "outputs": [
        {
          "internalType": "address",
          "name": "",
          "type": "address"
        }
      ],
      "stateMutability": "view",
      "type": "function"
    },
    {
      "inputs": [],
      "name": "thePassword",
      "outputs": [
        {
          "internalType": "bytes32",
          "name": "",
          "type": "bytes32"
        }
      ],
      "stateMutability": "view",
      "type": "function"
    },
    {
      "inputs": [],
      "name": "var16_1",
      "outputs": [
        {
          "internalType": "uint16",
          "name": "",
          "type": "uint16"
        }
      ],
      "stateMutability": "view",
      "type": "function"
    },
    {
      "inputs": [],
      "name": "var16_3",
      "outputs": [
        {
          "internalType": "uint16",
          "name": "",
          "type": "uint16"
        }
      ],
      "stateMutability": "view",
      "type": "function"
    },
    {
      "inputs": [],
      "name": "var256_1",
      "outputs": [
        {
          "internalType": "uint256",
          "name": "",
          "type": "uint256"
        }
      ],
      "stateMutability": "view",
      "type": "function"
    },
    {
      "inputs": [],
      "name": "var256_4",
      "outputs": [
        {
          "internalType": "uint256",
          "name": "",
          "type": "uint256"
        }
      ],
      "stateMutability": "view",
      "type": "function"
    }
  ],
  "bytecode": {
    "object": "0x60806040526105396000556001805467010000000000000030026001600160d81b03199091161765400020010000179055610d75600255611a15600355611e6c6007556008805466ffffffffffffff19166501010007004517905534801561006657600080fd5b506101b3806100766000396000f3fe608060405234801561001057600080fd5b50600436106100935760003560e01c8063bccb55c211610066578063bccb55c21461010b578063be3a34a814610114578063e94ad87b14610126578063fa1cd15314610134578063fdb2f39e1461014757600080fd5b80631a9f5a791461009857806329df76b9146100b4578063369712b7146100c657806343c514b8146100ee575b600080fd5b6100a160005481565b6040519081526020015b60405180910390f35b6100a1671491511050d5115160c21b81565b6001546100db906301000000900461ffff1681565b60405161ffff90911681526020016100ab565b6001546100fb9060ff1681565b60405190151581526020016100ab565b6100a160075481565b6001546100fb90610100900460ff1681565b6008546100db9061ffff1681565b6001546100fb9062010000900460ff1681565b6001546101659067010000000000000090046001600160a01b031681565b6040516001600160a01b0390911681526020016100ab56fea2646970667358221220d8df5f157dc66c42278b39fe4081218926437ddb6374cbc97903ea335dcf06e864736f6c634300080f0033",
    "linkReferences": {}
  },
  "methodIdentifiers": {
    "bool_1()": "43c514b8",
    "bool_2()": "be3a34a8",
    "bool_3()": "fa1cd153",
    "contractAdd()": "fdb2f39e",
    "thePassword()": "29df76b9",
    "var16_1()": "369712b7",
    "var16_3()": "e94ad87b",
    "var256_1()": "1a9f5a79",
    "var256_4()": "bccb55c2"
  },
  "id": 0
}