{
  "abi": [
    {
      "inputs": [
        {
          "internalType": "bytes20",
          "name": "_want",
          "type": "bytes20"
        },
        {
          "internalType": "bytes20",
          "name": "_mask",
          "type": "bytes20"
        },
        {
          "internalType": "uint256",
          "name": "_wordLength",
          "type": "uint256"
        }
      ],
      "stateMutability": "nonpayable",
      "type": "constructor"
    },
    {
      "inputs": [
        {
          "internalType": "bytes32",
          "name": "",
          "type": "bytes32"
        }
      ],
      "name": "UnDeAD",
      "outputs": [
        {
          "internalType": "bool",
          "name": "",
          "type": "bool"
        }
      ],
      "stateMutability": "view",
      "type": "function"
    },
    {
      "inputs": [
        {
          "internalType": "bytes32",
          "name": "_bytes32",
          "type": "bytes32"
        }
      ],
      "name": "bytes32ToString",
      "outputs": [
        {
          "internalType": "string",
          "name": "",
          "type": "string"
        }
      ],
      "stateMutability": "pure",
      "type": "function"
    },
    {
      "inputs": [
        {
          "internalType": "address",
          "name": "_addr",
          "type": "address"
        }
      ],
      "name": "deadOrAlive",
      "outputs": [],
      "stateMutability": "nonpayable",
      "type": "function"
    },
    {
      "inputs": [],
      "name": "mask",
      "outputs": [
        {
          "internalType": "bytes20",
          "name": "",
          "type": "bytes20"
        }
      ],
      "stateMutability": "view",
      "type": "function"
    },
    {
      "inputs": [],
      "name": "owner",
      "outputs": [
        {
          "internalType": "address",
          "name": "",
          "type": "address"
        }
      ],
      "stateMutability": "view",
      "type": "function"
    },
    {
      "inputs": [],
      "name": "want",
      "outputs": [
        {
          "internalType": "bytes20",
          "name": "",
          "type": "bytes20"
        }
      ],
      "stateMutability": "view",
      "type": "function"
    },
    {
      "inputs": [],
      "name": "wordLength",
      "outputs": [
        {
          "internalType": "uint256",
          "name": "",
          "type": "uint256"
        }
      ],
      "stateMutability": "view",
      "type": "function"
    }
  ],
  "bytecode": {
    "object": "0x608060405234801561001057600080fd5b506040516107e83803806107e883398101604081905261002f9161008d565b60008054606094851c6001600160a01b031991821617909155600180549390941c9281169290921790925560039190915560028054909116331790556100c9565b80516001600160601b03198116811461008857600080fd5b919050565b6000806000606084860312156100a257600080fd5b6100ab84610070565b92506100b960208501610070565b9150604084015190509250925092565b610710806100d86000396000f3fe608060405234801561001057600080fd5b506004361061007d5760003560e01c806381d9632b1161005b57806381d9632b146100d15780638da5cb5b146100e65780639201de5514610111578063d3215e901461013157600080fd5b8063116134ee146100825780631f1fcd51146100ad5780636e4ccfd2146100ba575b600080fd5b60015461008f9060601b81565b6040516001600160601b031990911681526020015b60405180910390f35b60005461008f9060601b81565b6100c360035481565b6040519081526020016100a4565b6100e46100df36600461056f565b610164565b005b6002546100f9906001600160a01b031681565b6040516001600160a01b0390911681526020016100a4565b61012461011f366004610598565b610399565b6040516100a491906105e1565b61015461013f366004610598565b60046020526000908152604090205460ff1681565b60405190151581526020016100a4565b6040516001600160601b0319606083901b16602082015260049060009060340160408051601f198184030181529181528151602092830120835290820192909252016000205460ff16156101eb5760405162461bcd60e51b81526020600482015260096024820152684e6f7420547769636560b81b60448201526064015b60405180910390fd5b60006101f6826104d0565b61022f5760405162461bcd60e51b815260206004820152600a60248201526915d85b9d08109b1bdbd960b21b60448201526064016101e2565b50803b600f811461023f57600080fd5b60008290506000816001600160a01b03166394555a656040518163ffffffff1660e01b8152600401602060405180830381865afa158015610284573d6000803e3d6000fd5b505050506040513d601f19601f820116820180604052508101906102a89190610614565b60d01b905060006102b882610399565b60405165155b9119505160d21b602082015290915060260160405160208183030381529060405280519060200120816040516020016102f7919061062d565b60405160208183030381529060405280519060200120146103445760405162461bcd60e51b81526020600482015260076024820152664d4f5254414c2160c81b60448201526064016101e2565b50506040805160609490941b6001600160601b031916602080860191909152815160148187030181526034909501825284519481019490942060009081526004909452909220805460ff191660011790555050565b606060005b60208160ff161080156103d25750828160ff16602081106103c1576103c1610649565b1a60f81b6001600160f81b03191615155b156103e957806103e181610675565b91505061039e565b60008160ff1667ffffffffffffffff81111561040757610407610694565b6040519080825280601f01601f191660200182016040528015610431576020820181803683370190505b509050600091505b60208260ff1610801561046d5750838260ff166020811061045c5761045c610649565b1a60f81b6001600160f81b03191615155b156104c957838260ff166020811061048757610487610649565b1a60f81b818360ff16815181106104a0576104a0610649565b60200101906001600160f81b031916908160001a905350816104c181610675565b925050610439565b9392505050565b6000606082901b815b6003546104e79060286106aa565b8111610565576000546001546001600160601b0319606092831b81169190921b84169091160361051b575060019392505050565b600180546010600160a01b03600482811b82166001600160a01b031993841617909355600080549384901b909116929091169190911790558061055d816106c1565b9150506104d9565b5060009392505050565b60006020828403121561058157600080fd5b81356001600160a01b03811681146104c957600080fd5b6000602082840312156105aa57600080fd5b5035919050565b60005b838110156105cc5781810151838201526020016105b4565b838111156105db576000848401525b50505050565b60208152600082518060208401526106008160408501602087016105b1565b601f01601f19169190910160400192915050565b60006020828403121561062657600080fd5b5051919050565b6000825161063f8184602087016105b1565b9190910192915050565b634e487b7160e01b600052603260045260246000fd5b634e487b7160e01b600052601160045260246000fd5b600060ff821660ff810361068b5761068b61065f565b60010192915050565b634e487b7160e01b600052604160045260246000fd5b6000828210156106bc576106bc61065f565b500390565b6000600182016106d3576106d361065f565b506001019056fea264697066735822122043446bdccfb16baa64102dbf897c3a6b6202b7ed9f9186ea68f86e7e418bdacd64736f6c634300080f0033",
    "linkReferences": {}
  },
  "methodIdentifiers": {
    "UnDeAD(bytes32)": "d3215e90",
    "bytes32ToString(bytes32)": "9201de55",
    "deadOrAlive(address)": "81d9632b",
    "mask()": "116134ee",
    "owner()": "8da5cb5b",
    "want()": "1f1fcd51",
    "wordLength()": "6e4ccfd2"
  },
  "id": 6
}