{
  "abi": [
    {
      "inputs": [
        {
          "internalType": "address",
          "name": "_token",
          "type": "address"
        },
        {
          "internalType": "uint256",
          "name": "_price",
          "type": "uint256"
        }
      ],
      "stateMutability": "nonpayable",
      "type": "constructor"
    },
    {
      "anonymous": false,
      "inputs": [
        {
          "indexed": true,
          "internalType": "address",
          "name": "owner",
          "type": "address"
        },
        {
          "indexed": true,
          "internalType": "address",
          "name": "approved",
          "type": "address"
        },
        {
          "indexed": true,
          "internalType": "uint256",
          "name": "tokenId",
          "type": "uint256"
        }
      ],
      "name": "Approval",
      "type": "event"
    },
    {
      "anonymous": false,
      "inputs": [
        {
          "indexed": true,
          "internalType": "address",
          "name": "owner",
          "type": "address"
        },
        {
          "indexed": true,
          "internalType": "address",
          "name": "operator",
          "type": "address"
        },
        {
          "indexed": false,
          "internalType": "bool",
          "name": "approved",
          "type": "bool"
        }
      ],
      "name": "ApprovalForAll",
      "type": "event"
    },
    {
      "anonymous": false,
      "inputs": [
        {
          "indexed": true,
          "internalType": "address",
          "name": "from",
          "type": "address"
        },
        {
          "indexed": true,
          "internalType": "address",
          "name": "to",
          "type": "address"
        },
        {
          "indexed": true,
          "internalType": "uint256",
          "name": "tokenId",
          "type": "uint256"
        }
      ],
      "name": "Transfer",
      "type": "event"
    },
    {
      "inputs": [
        {
          "internalType": "address",
          "name": "",
          "type": "address"
        },
        {
          "internalType": "uint256",
          "name": "",
          "type": "uint256"
        }
      ],
      "name": "allIds",
      "outputs": [
        {
          "internalType": "uint256",
          "name": "",
          "type": "uint256"
        }
      ],
      "stateMutability": "view",
      "type": "function"
    },
    {
      "inputs": [
        {
          "internalType": "address",
          "name": "to",
          "type": "address"
        },
        {
          "internalType": "uint256",
          "name": "tokenId",
          "type": "uint256"
        }
      ],
      "name": "approve",
      "outputs": [],
      "stateMutability": "nonpayable",
      "type": "function"
    },
    {
      "inputs": [
        {
          "internalType": "address",
          "name": "owner",
          "type": "address"
        }
      ],
      "name": "balanceOf",
      "outputs": [
        {
          "internalType": "uint256",
          "name": "",
          "type": "uint256"
        }
      ],
      "stateMutability": "view",
      "type": "function"
    },
    {
      "inputs": [],
      "name": "burnMaya",
      "outputs": [],
      "stateMutability": "nonpayable",
      "type": "function"
    },
    {
      "inputs": [],
      "name": "buy",
      "outputs": [],
      "stateMutability": "nonpayable",
      "type": "function"
    },
    {
      "inputs": [
        {
          "internalType": "uint256",
          "name": "tokenId",
          "type": "uint256"
        }
      ],
      "name": "getApproved",
      "outputs": [
        {
          "internalType": "address",
          "name": "",
          "type": "address"
        }
      ],
      "stateMutability": "view",
      "type": "function"
    },
    {
      "inputs": [],
      "name": "hunter",
      "outputs": [
        {
          "internalType": "string",
          "name": "",
          "type": "string"
        }
      ],
      "stateMutability": "view",
      "type": "function"
    },
    {
      "inputs": [
        {
          "internalType": "address",
          "name": "owner",
          "type": "address"
        },
        {
          "internalType": "address",
          "name": "operator",
          "type": "address"
        }
      ],
      "name": "isApprovedForAll",
      "outputs": [
        {
          "internalType": "bool",
          "name": "",
          "type": "bool"
        }
      ],
      "stateMutability": "view",
      "type": "function"
    },
    {
      "inputs": [],
      "name": "name",
      "outputs": [
        {
          "internalType": "string",
          "name": "",
          "type": "string"
        }
      ],
      "stateMutability": "view",
      "type": "function"
    },
    {
      "inputs": [],
      "name": "owner",
      "outputs": [
        {
          "internalType": "address",
          "name": "",
          "type": "address"
        }
      ],
      "stateMutability": "view",
      "type": "function"
    },
    {
      "inputs": [
        {
          "internalType": "uint256",
          "name": "tokenId",
          "type": "uint256"
        }
      ],
      "name": "ownerOf",
      "outputs": [
        {
          "internalType": "address",
          "name": "",
          "type": "address"
        }
      ],
      "stateMutability": "view",
      "type": "function"
    },
    {
      "inputs": [],
      "name": "price",
      "outputs": [
        {
          "internalType": "uint256",
          "name": "",
          "type": "uint256"
        }
      ],
      "stateMutability": "view",
      "type": "function"
    },
    {
      "inputs": [
        {
          "internalType": "address",
          "name": "from",
          "type": "address"
        },
        {
          "internalType": "address",
          "name": "to",
          "type": "address"
        },
        {
          "internalType": "uint256",
          "name": "tokenId",
          "type": "uint256"
        }
      ],
      "name": "safeTransferFrom",
      "outputs": [],
      "stateMutability": "nonpayable",
      "type": "function"
    },
    {
      "inputs": [
        {
          "internalType": "address",
          "name": "from",
          "type": "address"
        },
        {
          "internalType": "address",
          "name": "to",
          "type": "address"
        },
        {
          "internalType": "uint256",
          "name": "tokenId",
          "type": "uint256"
        },
        {
          "internalType": "bytes",
          "name": "data",
          "type": "bytes"
        }
      ],
      "name": "safeTransferFrom",
      "outputs": [],
      "stateMutability": "nonpayable",
      "type": "function"
    },
    {
      "inputs": [
        {
          "internalType": "address",
          "name": "operator",
          "type": "address"
        },
        {
          "internalType": "bool",
          "name": "approved",
          "type": "bool"
        }
      ],
      "name": "setApprovalForAll",
      "outputs": [],
      "stateMutability": "nonpayable",
      "type": "function"
    },
    {
      "inputs": [
        {
          "internalType": "uint256",
          "name": "_price",
          "type": "uint256"
        }
      ],
      "name": "setPrice",
      "outputs": [],
      "stateMutability": "nonpayable",
      "type": "function"
    },
    {
      "inputs": [
        {
          "internalType": "bytes4",
          "name": "interfaceId",
          "type": "bytes4"
        }
      ],
      "name": "supportsInterface",
      "outputs": [
        {
          "internalType": "bool",
          "name": "",
          "type": "bool"
        }
      ],
      "stateMutability": "view",
      "type": "function"
    },
    {
      "inputs": [],
      "name": "symbol",
      "outputs": [
        {
          "internalType": "string",
          "name": "",
          "type": "string"
        }
      ],
      "stateMutability": "view",
      "type": "function"
    },
    {
      "inputs": [],
      "name": "token",
      "outputs": [
        {
          "internalType": "contract IERC20",
          "name": "",
          "type": "address"
        }
      ],
      "stateMutability": "view",
      "type": "function"
    },
    {
      "inputs": [
        {
          "internalType": "uint256",
          "name": "",
          "type": "uint256"
        }
      ],
      "name": "tokenURI",
      "outputs": [
        {
          "internalType": "string",
          "name": "",
          "type": "string"
        }
      ],
      "stateMutability": "pure",
      "type": "function"
    },
    {
      "inputs": [
        {
          "internalType": "address",
          "name": "from",
          "type": "address"
        },
        {
          "internalType": "address",
          "name": "to",
          "type": "address"
        },
        {
          "internalType": "uint256",
          "name": "tokenId",
          "type": "uint256"
        }
      ],
      "name": "transferFrom",
      "outputs": [],
      "stateMutability": "nonpayable",
      "type": "function"
    },
    {
      "inputs": [
        {
          "internalType": "address",
          "name": "newOwner",
          "type": "address"
        }
      ],
      "name": "transferOwnership",
      "outputs": [],
      "stateMutability": "nonpayable",
      "type": "function"
    }
  ],
  "bytecode": {
    "object": "0x60806040523480156200001157600080fd5b50604051620015e7380380620015e78339810160408190526200003491620000b4565b6040805180820182526004808252634d41594160e01b602080840182905284518086019095529184529083015290600062000070838262000195565b5060016200007f828262000195565b5050600780546001600160a01b039094166001600160a01b031994851617905550600855600980549091163317905562000261565b60008060408385031215620000c857600080fd5b82516001600160a01b0381168114620000e057600080fd5b6020939093015192949293505050565b634e487b7160e01b600052604160045260246000fd5b600181811c908216806200011b57607f821691505b6020821081036200013c57634e487b7160e01b600052602260045260246000fd5b50919050565b601f8211156200019057600081815260208120601f850160051c810160208610156200016b5750805b601f850160051c820191505b818110156200018c5782815560010162000177565b5050505b505050565b81516001600160401b03811115620001b157620001b1620000f0565b620001c981620001c2845462000106565b8462000142565b602080601f831160018114620002015760008415620001e85750858301515b600019600386901b1c1916600185901b1785556200018c565b600085815260208120601f198616915b82811015620002325788860151825594840194600190910190840162000211565b5085821015620002515787850151600019600388901b60f8161c191681555b5050505050600190811b01905550565b61137680620002716000396000f3fe608060405234801561001057600080fd5b50600436106101425760003560e01c80638da5cb5b116100b8578063a6f2ae3a1161007c578063a6f2ae3a1461028b578063b88d4fde14610293578063c87b56dd146102a1578063e985e9c5146102b4578063f2fde38b146102f0578063fc0c546a1461030357600080fd5b80638da5cb5b1461024157806391b7f5ed1461025457806395d89b4114610267578063a035b1fe1461026f578063a22cb4651461027857600080fd5b80631602f7b01161010a5780631602f7b0146101cc57806323b872dd146101d457806342842e0e146101e75780636352211e146101fa57806370a082311461020d57806383d9cddb1461022e57600080fd5b806301ffc9a71461014757806306fdde031461016f578063081812fc14610184578063095ea7b3146101af578063116f7a15146101c4575b600080fd5b61015a610155366004610f64565b610316565b60405190151581526020015b60405180910390f35b610177610368565b6040516101669190610fc5565b610197610192366004610ff8565b6103fa565b6040516001600160a01b039091168152602001610166565b6101c26101bd36600461102d565b610421565b005b6101c2610559565b610177610620565b6101c26101e2366004611057565b6106bf565b6101c26101f5366004611057565b610707565b610197610208366004610ff8565b610722565b61022061021b366004611093565b610782565b604051908152602001610166565b61022061023c36600461102d565b610808565b600954610197906001600160a01b031681565b6101c2610262366004610ff8565b610839565b610177610888565b61022060085481565b6101c26102863660046110ae565b610897565b6101c26108a6565b6101c26101e2366004611100565b6101776102af366004610ff8565b610a7a565b61015a6102c23660046111dc565b6001600160a01b03918216600090815260056020908152604080832093909416825291909152205460ff1690565b6101c26102fe366004611093565b610a9b565b600754610197906001600160a01b031681565b60006001600160e01b031982166380ac58cd60e01b148061034757506001600160e01b03198216635b5e139f60e01b145b8061036257506301ffc9a760e01b6001600160e01b03198316145b92915050565b6060600080546103779061120f565b80601f01602080910402602001604051908101604052809291908181526020018280546103a39061120f565b80156103f05780601f106103c5576101008083540402835291602001916103f0565b820191906000526020600020905b8154815290600101906020018083116103d357829003601f168201915b5050505050905090565b600061040582610b07565b506000908152600460205260409020546001600160a01b031690565b600061042c82610722565b9050806001600160a01b0316836001600160a01b03160361049e5760405162461bcd60e51b815260206004820152602160248201527f4552433732313a20617070726f76616c20746f2063757272656e74206f776e656044820152603960f91b60648201526084015b60405180910390fd5b336001600160a01b03821614806104d857506001600160a01b038116600090815260056020908152604080832033845290915290205460ff165b61054a5760405162461bcd60e51b815260206004820152603e60248201527f4552433732313a20617070726f76652063616c6c6572206973206e6f7420746f60448201527f6b656e206f776e6572206e6f7220617070726f76656420666f7220616c6c00006064820152608401610495565b6105548383610b66565b505050565b600061056433610782565b116105a25760405162461bcd60e51b815260206004820152600e60248201526d27379024b239903a3790313ab93760911b6044820152606401610495565b336000908152600a6020526040812054905b8181101561060457336000908152600a602052604081208054839081106105dd576105dd611249565b906000526020600020015490506105f381610bd4565b506105fd81611275565b90506105b4565b50336000908152600a6020526040812061061d91610f36565b50565b6060600061062d33610782565b90506002811115610657576040518060600160405280602b81526020016112f3602b913991505090565b801561068e5750506040805180820190915260158152744f6820776f772120596f7520676f74204d6179612160581b602082015290565b5050604080518082019091526011815270427579206f6e65206174206c656173743f60781b602082015290565b5090565b60405162461bcd60e51b815260206004820152601760248201527f446f6e2774206368656174207468652073797374656d210000000000000000006044820152606401610495565b610554838383604051806020016040528060008152506106bf565b6000818152600260205260408120546001600160a01b0316806103625760405162461bcd60e51b8152602060048201526018602482015277115490cdcc8c4e881a5b9d985b1a59081d1bdad95b88125160421b6044820152606401610495565b60006001600160a01b0382166107ec5760405162461bcd60e51b815260206004820152602960248201527f4552433732313a2061646472657373207a65726f206973206e6f7420612076616044820152683634b21037bbb732b960b91b6064820152608401610495565b506001600160a01b031660009081526003602052604090205490565b600a602052816000526040600020818154811061082457600080fd5b90600052602060002001600091509150505481565b6009546001600160a01b031633146108835760405162461bcd60e51b815260206004820152600d60248201526c2737ba103a34329027bbb732b960991b6044820152606401610495565b600855565b6060600180546103779061120f565b6108a2338383610c6f565b5050565b6008546007546040516370a0823160e01b81523360048201526001600160a01b03909116906370a0823190602401602060405180830381865afa1580156108f1573d6000803e3d6000fd5b505050506040513d601f19601f82011682018060405250810190610915919061128e565b101561095a5760405162461bcd60e51b8152602060048201526014602482015273496e73756666696369656e742062616c616e636560601b6044820152606401610495565b600854600754604051636eb1769f60e11b81523360048201523060248201526001600160a01b039091169063dd62ed3e90604401602060405180830381865afa1580156109ab573d6000803e3d6000fd5b505050506040513d601f19601f820116820180604052508101906109cf919061128e565b1015610a165760405162461bcd60e51b8152602060048201526016602482015275496e73756666696369656e7420416c6c6f77616e636560501b6044820152606401610495565b6000610a2160065490565b9050610a31600680546001019055565b610a3b3382610d3d565b336000818152600a60209081526040822080546001810182559083529120018290556008546007546108a2926001600160a01b03909116913090610e7f565b606060405180606001604052806023815260200161131e6023913992915050565b6009546001600160a01b03163314610ae55760405162461bcd60e51b815260206004820152600d60248201526c2737ba103a34329027bbb732b960991b6044820152606401610495565b600980546001600160a01b0319166001600160a01b0392909216919091179055565b6000818152600260205260409020546001600160a01b031661061d5760405162461bcd60e51b8152602060048201526018602482015277115490cdcc8c4e881a5b9d985b1a59081d1bdad95b88125160421b6044820152606401610495565b600081815260046020526040902080546001600160a01b0319166001600160a01b0384169081179091558190610b9b82610722565b6001600160a01b03167f8c5be1e5ebec7d5bd14f71427d1e84f3dd0314c0f7b2291e5b200ac8c7c3b92560405160405180910390a45050565b6000610bdf82610722565b9050610bec600083610b66565b6001600160a01b0381166000908152600360205260408120805460019290610c159084906112a7565b909155505060008281526002602052604080822080546001600160a01b0319169055518391906001600160a01b038416907fddf252ad1be2c89b69c2b068fc378daa952ba7f163c4a11628f55a4df523b3ef908390a45050565b816001600160a01b0316836001600160a01b031603610cd05760405162461bcd60e51b815260206004820152601960248201527f4552433732313a20617070726f766520746f2063616c6c6572000000000000006044820152606401610495565b6001600160a01b03838116600081815260056020908152604080832094871680845294825291829020805460ff191686151590811790915591519182527f17307eab39ab6107e8899845ad3d59bd9653f200f220920489ca2b5937696c31910160405180910390a3505050565b6001600160a01b038216610d935760405162461bcd60e51b815260206004820181905260248201527f4552433732313a206d696e7420746f20746865207a65726f20616464726573736044820152606401610495565b6000818152600260205260409020546001600160a01b031615610df85760405162461bcd60e51b815260206004820152601c60248201527f4552433732313a20746f6b656e20616c7265616479206d696e746564000000006044820152606401610495565b6001600160a01b0382166000908152600360205260408120805460019290610e219084906112be565b909155505060008181526002602052604080822080546001600160a01b0319166001600160a01b03861690811790915590518392907fddf252ad1be2c89b69c2b068fc378daa952ba7f163c4a11628f55a4df523b3ef908290a45050565b604080516001600160a01b0385811660248301528481166044830152606480830185905283518084039091018152608490920183526020820180516001600160e01b03166323b872dd60e01b17905291516060926000928392918916918391610ee7916112d6565b60006040518083038185875af1925050503d8060008114610f24576040519150601f19603f3d011682016040523d82523d6000602084013e610f29565b606091505b5098975050505050505050565b508054600082559060005260206000209081019061061d91905b808211156106bb5760008155600101610f50565b600060208284031215610f7657600080fd5b81356001600160e01b031981168114610f8e57600080fd5b9392505050565b60005b83811015610fb0578181015183820152602001610f98565b83811115610fbf576000848401525b50505050565b6020815260008251806020840152610fe4816040850160208701610f95565b601f01601f19169190910160400192915050565b60006020828403121561100a57600080fd5b5035919050565b80356001600160a01b038116811461102857600080fd5b919050565b6000806040838503121561104057600080fd5b61104983611011565b946020939093013593505050565b60008060006060848603121561106c57600080fd5b61107584611011565b925061108360208501611011565b9150604084013590509250925092565b6000602082840312156110a557600080fd5b610f8e82611011565b600080604083850312156110c157600080fd5b6110ca83611011565b9150602083013580151581146110df57600080fd5b809150509250929050565b634e487b7160e01b600052604160045260246000fd5b6000806000806080858703121561111657600080fd5b61111f85611011565b935061112d60208601611011565b925060408501359150606085013567ffffffffffffffff8082111561115157600080fd5b818701915087601f83011261116557600080fd5b813581811115611177576111776110ea565b604051601f8201601f19908116603f0116810190838211818310171561119f5761119f6110ea565b816040528281528a60208487010111156111b857600080fd5b82602086016020830137600060208483010152809550505050505092959194509250565b600080604083850312156111ef57600080fd5b6111f883611011565b915061120660208401611011565b90509250929050565b600181811c9082168061122357607f821691505b60208210810361124357634e487b7160e01b600052602260045260246000fd5b50919050565b634e487b7160e01b600052603260045260246000fd5b634e487b7160e01b600052601160045260246000fd5b6000600182016112875761128761125f565b5060010190565b6000602082840312156112a057600080fd5b5051919050565b6000828210156112b9576112b961125f565b500390565b600082198211156112d1576112d161125f565b500190565b600082516112e8818460208701610f95565b919091019291505056fe5365656d73206c696b6520796f7520686176652066696775726564206974206f75743f2048756e7465722168747470733a2f2f636970686572736861737472612e636f6d2f4d6179612e68746d6ca2646970667358221220f1f81c7cd9123fa7064e8af7e464ce20c85005c591ffbb19757b0e1d9bf9929264736f6c634300080f0033",
    "linkReferences": {}
  },
  "methodIdentifiers": {
    "allIds(address,uint256)": "83d9cddb",
    "approve(address,uint256)": "095ea7b3",
    "balanceOf(address)": "70a08231",
    "burnMaya()": "116f7a15",
    "buy()": "a6f2ae3a",
    "getApproved(uint256)": "081812fc",
    "hunter()": "1602f7b0",
    "isApprovedForAll(address,address)": "e985e9c5",
    "name()": "06fdde03",
    "owner()": "8da5cb5b",
    "ownerOf(uint256)": "6352211e",
    "price()": "a035b1fe",
    "safeTransferFrom(address,address,uint256)": "42842e0e",
    "safeTransferFrom(address,address,uint256,bytes)": "b88d4fde",
    "setApprovalForAll(address,bool)": "a22cb465",
    "setPrice(uint256)": "91b7f5ed",
    "supportsInterface(bytes4)": "01ffc9a7",
    "symbol()": "95d89b41",
    "token()": "fc0c546a",
    "tokenURI(uint256)": "c87b56dd",
    "transferFrom(address,address,uint256)": "23b872dd",
    "transferOwnership(address)": "f2fde38b"
  },
  "id": 10
}