{
  "abi": [
    {
      "inputs": [],
      "stateMutability": "nonpayable",
      "type": "constructor"
    },
    {
      "anonymous": false,
      "inputs": [
        {
          "indexed": true,
          "internalType": "address",
          "name": "owner",
          "type": "address"
        },
        {
          "indexed": true,
          "internalType": "address",
          "name": "spender",
          "type": "address"
        },
        {
          "indexed": false,
          "internalType": "uint256",
          "name": "value",
          "type": "uint256"
        }
      ],
      "name": "Approval",
      "type": "event"
    },
    {
      "anonymous": false,
      "inputs": [
        {
          "indexed": true,
          "internalType": "address",
          "name": "from",
          "type": "address"
        },
        {
          "indexed": true,
          "internalType": "address",
          "name": "to",
          "type": "address"
        },
        {
          "indexed": false,
          "internalType": "uint256",
          "name": "value",
          "type": "uint256"
        }
      ],
      "name": "Transfer",
      "type": "event"
    },
    {
      "inputs": [],
      "name": "Maya",
      "outputs": [
        {
          "internalType": "address",
          "name": "",
          "type": "address"
        }
      ],
      "stateMutability": "view",
      "type": "function"
    },
    {
      "inputs": [
        {
          "internalType": "address",
          "name": "owner",
          "type": "address"
        },
        {
          "internalType": "address",
          "name": "spender",
          "type": "address"
        }
      ],
      "name": "allowance",
      "outputs": [
        {
          "internalType": "uint256",
          "name": "",
          "type": "uint256"
        }
      ],
      "stateMutability": "view",
      "type": "function"
    },
    {
      "inputs": [
        {
          "internalType": "address",
          "name": "spender",
          "type": "address"
        },
        {
          "internalType": "uint256",
          "name": "amount",
          "type": "uint256"
        }
      ],
      "name": "approve",
      "outputs": [
        {
          "internalType": "bool",
          "name": "",
          "type": "bool"
        }
      ],
      "stateMutability": "nonpayable",
      "type": "function"
    },
    {
      "inputs": [
        {
          "internalType": "address",
          "name": "account",
          "type": "address"
        }
      ],
      "name": "balanceOf",
      "outputs": [
        {
          "internalType": "uint256",
          "name": "",
          "type": "uint256"
        }
      ],
      "stateMutability": "view",
      "type": "function"
    },
    {
      "inputs": [
        {
          "internalType": "address",
          "name": "account",
          "type": "address"
        }
      ],
      "name": "burnMERC20",
      "outputs": [],
      "stateMutability": "nonpayable",
      "type": "function"
    },
    {
      "inputs": [],
      "name": "decimals",
      "outputs": [
        {
          "internalType": "uint8",
          "name": "",
          "type": "uint8"
        }
      ],
      "stateMutability": "view",
      "type": "function"
    },
    {
      "inputs": [
        {
          "internalType": "address",
          "name": "spender",
          "type": "address"
        },
        {
          "internalType": "uint256",
          "name": "subtractedValue",
          "type": "uint256"
        }
      ],
      "name": "decreaseAllowance",
      "outputs": [
        {
          "internalType": "bool",
          "name": "",
          "type": "bool"
        }
      ],
      "stateMutability": "nonpayable",
      "type": "function"
    },
    {
      "inputs": [],
      "name": "getTokens",
      "outputs": [],
      "stateMutability": "nonpayable",
      "type": "function"
    },
    {
      "inputs": [
        {
          "internalType": "address",
          "name": "spender",
          "type": "address"
        },
        {
          "internalType": "uint256",
          "name": "addedValue",
          "type": "uint256"
        }
      ],
      "name": "increaseAllowance",
      "outputs": [
        {
          "internalType": "bool",
          "name": "",
          "type": "bool"
        }
      ],
      "stateMutability": "nonpayable",
      "type": "function"
    },
    {
      "inputs": [
        {
          "internalType": "address",
          "name": "",
          "type": "address"
        }
      ],
      "name": "lastRequested",
      "outputs": [
        {
          "internalType": "uint256",
          "name": "",
          "type": "uint256"
        }
      ],
      "stateMutability": "view",
      "type": "function"
    },
    {
      "inputs": [
        {
          "internalType": "address",
          "name": "account",
          "type": "address"
        },
        {
          "internalType": "uint256",
          "name": "amount",
          "type": "uint256"
        }
      ],
      "name": "mintMERC20",
      "outputs": [],
      "stateMutability": "nonpayable",
      "type": "function"
    },
    {
      "inputs": [],
      "name": "name",
      "outputs": [
        {
          "internalType": "string",
          "name": "",
          "type": "string"
        }
      ],
      "stateMutability": "view",
      "type": "function"
    },
    {
      "inputs": [],
      "name": "ownerAdd",
      "outputs": [
        {
          "internalType": "address",
          "name": "",
          "type": "address"
        }
      ],
      "stateMutability": "view",
      "type": "function"
    },
    {
      "inputs": [
        {
          "internalType": "address",
          "name": "",
          "type": "address"
        }
      ],
      "name": "requests",
      "outputs": [
        {
          "internalType": "uint256",
          "name": "",
          "type": "uint256"
        }
      ],
      "stateMutability": "view",
      "type": "function"
    },
    {
      "inputs": [
        {
          "internalType": "address",
          "name": "_Maya",
          "type": "address"
        }
      ],
      "name": "setMaya",
      "outputs": [],
      "stateMutability": "nonpayable",
      "type": "function"
    },
    {
      "inputs": [],
      "name": "symbol",
      "outputs": [
        {
          "internalType": "string",
          "name": "",
          "type": "string"
        }
      ],
      "stateMutability": "view",
      "type": "function"
    },
    {
      "inputs": [],
      "name": "totalSupply",
      "outputs": [
        {
          "internalType": "uint256",
          "name": "",
          "type": "uint256"
        }
      ],
      "stateMutability": "view",
      "type": "function"
    },
    {
      "inputs": [
        {
          "internalType": "address",
          "name": "to",
          "type": "address"
        },
        {
          "internalType": "uint256",
          "name": "amount",
          "type": "uint256"
        }
      ],
      "name": "transfer",
      "outputs": [
        {
          "internalType": "bool",
          "name": "",
          "type": "bool"
        }
      ],
      "stateMutability": "nonpayable",
      "type": "function"
    },
    {
      "inputs": [
        {
          "internalType": "address",
          "name": "from",
          "type": "address"
        },
        {
          "internalType": "address",
          "name": "to",
          "type": "address"
        },
        {
          "internalType": "uint256",
          "name": "amount",
          "type": "uint256"
        }
      ],
      "name": "transferFrom",
      "outputs": [
        {
          "internalType": "bool",
          "name": "",
          "type": "bool"
        }
      ],
      "stateMutability": "nonpayable",
      "type": "function"
    },
    {
      "inputs": [
        {
          "internalType": "address",
          "name": "newOwner",
          "type": "address"
        }
      ],
      "name": "transferOwnership",
      "outputs": [],
      "stateMutability": "nonpayable",
      "type": "function"
    }
  ],
  "bytecode": {
    "object": "0x60806040523480156200001157600080fd5b506040518060400160405280600e81526020016d26b0bcb0a2a92199182a37b5b2b760911b8152506040518060400160405280600681526020016504d45524332360d41b815250816003908162000069919062000222565b50600462000078828262000222565b5050506200009b336d314dc6448d9338c15b0a00000000620000b360201b60201c565b600680546001600160a01b0319163317905562000315565b6001600160a01b0382166200010e5760405162461bcd60e51b815260206004820152601f60248201527f45524332303a206d696e7420746f20746865207a65726f206164647265737300604482015260640160405180910390fd5b8060026000828254620001229190620002ee565b90915550506001600160a01b038216600081815260208181526040808320805486019055518481527fddf252ad1be2c89b69c2b068fc378daa952ba7f163c4a11628f55a4df523b3ef910160405180910390a35050565b505050565b634e487b7160e01b600052604160045260246000fd5b600181811c90821680620001a957607f821691505b602082108103620001ca57634e487b7160e01b600052602260045260246000fd5b50919050565b601f8211156200017957600081815260208120601f850160051c81016020861015620001f95750805b601f850160051c820191505b818110156200021a5782815560010162000205565b505050505050565b81516001600160401b038111156200023e576200023e6200017e565b62000256816200024f845462000194565b84620001d0565b602080601f8311600181146200028e5760008415620002755750858301515b600019600386901b1c1916600185901b1785556200021a565b600085815260208120601f198616915b82811015620002bf578886015182559484019460019091019084016200029e565b5085821015620002de5787850151600019600388901b60f8161c191681555b5050505050600190811b01905550565b600082198211156200031057634e487b7160e01b600052601160045260246000fd5b500190565b610f7780620003256000396000f3fe608060405234801561001057600080fd5b506004361061012c5760003560e01c80637a2d5702116100ad578063a9059cbb11610071578063a9059cbb146102a3578063aa6ca808146102b6578063c7d13e37146102be578063dd62ed3e146102d1578063f2fde38b146102e457600080fd5b80637a2d57021461022a5780637dbc5b201461025557806388212c011461026857806395d89b4114610288578063a457c2d71461029057600080fd5b8063313ce567116100f4578063313ce567146101ac57806339509351146101bb578063700e3277146101ce57806370a08231146101e157806374adad1d1461020a57600080fd5b806305a1cf8d1461013157806306fdde0314610146578063095ea7b31461016457806318160ddd1461018757806323b872dd14610199575b600080fd5b61014461013f366004610d70565b6102f7565b005b61014e610351565b60405161015b9190610d92565b60405180910390f35b610177610172366004610de7565b6103e3565b604051901515815260200161015b565b6002545b60405190815260200161015b565b6101776101a7366004610e11565b6103fb565b6040516012815260200161015b565b6101776101c9366004610de7565b610477565b6101446101dc366004610de7565b610499565b61018b6101ef366004610d70565b6001600160a01b031660009081526020819052604090205490565b61018b610218366004610d70565b60076020526000908152604090205481565b60065461023d906001600160a01b031681565b6040516001600160a01b03909116815260200161015b565b60055461023d906001600160a01b031681565b61018b610276366004610d70565b60086020526000908152604090205481565b61014e6104cd565b61017761029e366004610de7565b6104dc565b6101776102b1366004610de7565b610557565b6101446105bd565b6101446102cc366004610d70565b610765565b61018b6102df366004610e4d565b6107b1565b6101446102f2366004610d70565b6107dc565b6006546001600160a01b0316331461032a5760405162461bcd60e51b815260040161032190610e80565b60405180910390fd5b6001600160a01b03811660009081526020819052604090205461034d8282610828565b5050565b60606003805461036090610ea7565b80601f016020809104026020016040519081016040528092919081815260200182805461038c90610ea7565b80156103d95780601f106103ae576101008083540402835291602001916103d9565b820191906000526020600020905b8154815290600101906020018083116103bc57829003601f168201915b5050505050905090565b6000336103f181858561095b565b5060019392505050565b6005546000906001600160a01b038481169116146104555760405162461bcd60e51b8152602060048201526017602482015276446f6e2774206368656174207468652073797374656d2160481b6044820152606401610321565b33610461858285610a77565b61046c858585610af1565b506001949350505050565b6000336103f181858561048a83836107b1565b6104949190610ef7565b61095b565b6006546001600160a01b031633146104c35760405162461bcd60e51b815260040161032190610e80565b61034d8282610c95565b60606004805461036090610ea7565b600033816104ea82866107b1565b90508381101561054a5760405162461bcd60e51b815260206004820152602560248201527f45524332303a2064656372656173656420616c6c6f77616e63652062656c6f77604482015264207a65726f60d81b6064820152608401610321565b61046c828686840361095b565b6005546000906001600160a01b038481169116146105b15760405162461bcd60e51b8152602060048201526017602482015276446f6e2774206368656174207468652073797374656d2160481b6044820152606401610321565b336103f1818585610af1565b3360009081526020819052604090205415801561064357506005546040516370a0823160e01b81523360048201526001600160a01b03909116906370a0823190602401602060405180830381865afa15801561061d573d6000803e3d6000fd5b505050506040513d601f19601f820116820180604052508101906106419190610f0f565b155b6106995760405162461bcd60e51b815260206004820152602160248201527f45766572796f6e65206c696b65732066726565206d6f6e65792c2072696768746044820152603f60f81b6064820152608401610321565b33600090815260076020526040812080549091906106b690610f28565b90915550336000908152600760205260409020546005101561073e57336000908152600860205260409020546106ee90610e10610ef7565b42101561072a5760405162461bcd60e51b815260206004820152600a602482015269446f6e2774205370616d60b01b6044820152606401610321565b336000908152600760205260409020600190555b61075133681b1ae4d6e2ef500000610c95565b336000908152600860205260409020429055565b6006546001600160a01b0316331461078f5760405162461bcd60e51b815260040161032190610e80565b600580546001600160a01b0319166001600160a01b0392909216919091179055565b6001600160a01b03918216600090815260016020908152604080832093909416825291909152205490565b6006546001600160a01b031633146108065760405162461bcd60e51b815260040161032190610e80565b600680546001600160a01b0319166001600160a01b0392909216919091179055565b6001600160a01b0382166108885760405162461bcd60e51b815260206004820152602160248201527f45524332303a206275726e2066726f6d20746865207a65726f206164647265736044820152607360f81b6064820152608401610321565b6001600160a01b038216600090815260208190526040902054818110156108fc5760405162461bcd60e51b815260206004820152602260248201527f45524332303a206275726e20616d6f756e7420657863656564732062616c616e604482015261636560f01b6064820152608401610321565b6001600160a01b0383166000818152602081815260408083208686039055600280548790039055518581529192917fddf252ad1be2c89b69c2b068fc378daa952ba7f163c4a11628f55a4df523b3ef91015b60405180910390a3505050565b6001600160a01b0383166109bd5760405162461bcd60e51b8152602060048201526024808201527f45524332303a20617070726f76652066726f6d20746865207a65726f206164646044820152637265737360e01b6064820152608401610321565b6001600160a01b038216610a1e5760405162461bcd60e51b815260206004820152602260248201527f45524332303a20617070726f766520746f20746865207a65726f206164647265604482015261737360f01b6064820152608401610321565b6001600160a01b0383811660008181526001602090815260408083209487168084529482529182902085905590518481527f8c5be1e5ebec7d5bd14f71427d1e84f3dd0314c0f7b2291e5b200ac8c7c3b925910161094e565b6000610a8384846107b1565b90506000198114610aeb5781811015610ade5760405162461bcd60e51b815260206004820152601d60248201527f45524332303a20696e73756666696369656e7420616c6c6f77616e63650000006044820152606401610321565b610aeb848484840361095b565b50505050565b6001600160a01b038316610b555760405162461bcd60e51b815260206004820152602560248201527f45524332303a207472616e736665722066726f6d20746865207a65726f206164604482015264647265737360d81b6064820152608401610321565b6001600160a01b038216610bb75760405162461bcd60e51b815260206004820152602360248201527f45524332303a207472616e7366657220746f20746865207a65726f206164647260448201526265737360e81b6064820152608401610321565b6001600160a01b03831660009081526020819052604090205481811015610c2f5760405162461bcd60e51b815260206004820152602660248201527f45524332303a207472616e7366657220616d6f756e7420657863656564732062604482015265616c616e636560d01b6064820152608401610321565b6001600160a01b03848116600081815260208181526040808320878703905593871680835291849020805487019055925185815290927fddf252ad1be2c89b69c2b068fc378daa952ba7f163c4a11628f55a4df523b3ef910160405180910390a3610aeb565b6001600160a01b038216610ceb5760405162461bcd60e51b815260206004820152601f60248201527f45524332303a206d696e7420746f20746865207a65726f2061646472657373006044820152606401610321565b8060026000828254610cfd9190610ef7565b90915550506001600160a01b038216600081815260208181526040808320805486019055518481527fddf252ad1be2c89b69c2b068fc378daa952ba7f163c4a11628f55a4df523b3ef910160405180910390a35050565b80356001600160a01b0381168114610d6b57600080fd5b919050565b600060208284031215610d8257600080fd5b610d8b82610d54565b9392505050565b600060208083528351808285015260005b81811015610dbf57858101830151858201604001528201610da3565b81811115610dd1576000604083870101525b50601f01601f1916929092016040019392505050565b60008060408385031215610dfa57600080fd5b610e0383610d54565b946020939093013593505050565b600080600060608486031215610e2657600080fd5b610e2f84610d54565b9250610e3d60208501610d54565b9150604084013590509250925092565b60008060408385031215610e6057600080fd5b610e6983610d54565b9150610e7760208401610d54565b90509250929050565b6020808252600d908201526c2737ba103a34329027bbb732b960991b604082015260600190565b600181811c90821680610ebb57607f821691505b602082108103610edb57634e487b7160e01b600052602260045260246000fd5b50919050565b634e487b7160e01b600052601160045260246000fd5b60008219821115610f0a57610f0a610ee1565b500190565b600060208284031215610f2157600080fd5b5051919050565b600060018201610f3a57610f3a610ee1565b506001019056fea2646970667358221220084b2399afddff7f93a5c162bbd807de29f59c20509128d7ff7b943e765540fc64736f6c634300080f0033",
    "linkReferences": {}
  },
  "methodIdentifiers": {
    "Maya()": "7dbc5b20",
    "allowance(address,address)": "dd62ed3e",
    "approve(address,uint256)": "095ea7b3",
    "balanceOf(address)": "70a08231",
    "burnMERC20(address)": "05a1cf8d",
    "decimals()": "313ce567",
    "decreaseAllowance(address,uint256)": "a457c2d7",
    "getTokens()": "aa6ca808",
    "increaseAllowance(address,uint256)": "39509351",
    "lastRequested(address)": "88212c01",
    "mintMERC20(address,uint256)": "700e3277",
    "name()": "06fdde03",
    "ownerAdd()": "7a2d5702",
    "requests(address)": "74adad1d",
    "setMaya(address)": "c7d13e37",
    "symbol()": "95d89b41",
    "totalSupply()": "18160ddd",
    "transfer(address,uint256)": "a9059cbb",
    "transferFrom(address,address,uint256)": "23b872dd",
    "transferOwnership(address)": "f2fde38b"
  },
  "id": 18
}